S014000057495A37353053525F4170702E7372656355
S21400700000400020C171000059F500005BF500004B
S214007010000000000000000000000000000000006B
S2140070200000000000000000000000005DF5000009
S21400703000000000000000005FF5000061F50000A1
S21400704069F500006BF500006DF500007DF50000A9
S2140070508DF500008FF5000091F5000093F5000017
S21400706095F5000097F5000099F500009BF50000E7
S2140070709DF50000A5F50000A7F50000A9F50000A5
S214007080ABF50000ADF50000AFF50000B1F500006F
S214007090B3F50000B5F5000011720000B7F500006A
S2140070A0B9F50000BBF5000030B583B000F066F916
S2140070B0314B324A1360324A1360324B324A3349FC
S2140070C08B4204D21168196004330432F7E72B4B65
S2140070D01A682F4B9A4200D0FEE7294B1A682D4BB0
S2140070E09A42F9D1244B2C4A13602C4A13602C4B3D
S2140070F002E000221A6004332A4A9342F9D3264B50
S2140071001B68002B03D1254B1B68002B00D0FEE725
S21400711000F038F9694601A800F0B6F8224C234B77
S214007120E41AA4100025AC4214DC214C214BE41ACE
S214007130A4100025AC4213DC0099019808F0C2FDAB
S21400714005001D4C1D4BE41AA410002C0EDC280074
S21400715000F074F8AA00154BD35898470135E2E7BB
S214007160AA00144BD35898470135E3E7013CA20028
S214007170124BD3589847E8E7BABADECA0000002098
S214007180F0030020000000208C4D0100F4030020D6
S2140071907856341232547698F4030020902A002051
S2140071A0F4030020942A00203C7200003C72000089
S2140071B03C7200003C7200003C7200003C72000012
S2140071C010B5FFF771FF00BEFEE7042071460842C7
S2140071D002D0EFF3098001E0EFF3088071460B4A16
S2140071E0104770B504000D00044800F07DF8290033
S2140071F0200000F0CBF800BEFEE7C046E4340100F5
S21400720000BEFEE700BEFEE770470000E371000028
S206007210FEE792
S2140072148C4D010000000020F40300208C4D01007A
S2140072240000001000000010F4030020942A002040
S20C00723400000010000000102D
S21400723CFEE7000010B503000D4A1268002A0BD0BA
S21400724C0B4A1068033303229343C318094A93422C
S21400725C06D8074A136010BD054A07491160EFE7C8
S21400726C0AF050FD0C23036001204042F3E7C046B1
S21400727CF803002000380020942A00200123036025
S21400728C014B0B607047C0460400002010B50AF096
S21400729C39FD582303600120404210BD10B50AF09A
S2140072AC31FD582303600120404210BD10B50AF092
S2140072BC29FD58230360002010BD10B50AF022FDEE
S2140072CC582303600120404210BD10B50AF01AFD89
S2140072DC582303600120404210BD00000FB400B5D7
S2140072EC83B004AB04CB0193802106480AF0B2FFAE
S2140072FC002803DD0100034800F036F803B008BC94
S21400730C04B0184700040020F0B5C64600B586B099
S21400731C040001914356002B01D0019F1CE004266B
S21400732C301C211CABBE041C019806B004BC904655
S21400733CF0BD0022A25602A9CA5401330134B3424E
S21400734CF7D302AA904600224146CA540425281CAC
S21400735C4146ABBE8046BF1B002FE5D03E00102F2B
S21400736C00D910260023EAE710B5FFF7CDFF10BDB5
S21400737C10B500F05BF810BD10B500F057F810BD56
S21400738C70B504000D001548FFF7A8FF21681448D7
S21400739CFFF7A4FF61681348FFF7A0FFA168124827
S2140073ACFFF79CFFE1681148FFF798FF216910482A
S2140073BCFFF794FF61690F48FFF790FFA1690E482D
S2140073CCFFF78CFFE1690D48FFF788FF0C48FFF7C5
S2140073DC85FF29000B48FFF781FF70BD3434010090
S2140073EC4434010054340100643401007434010048
S2140073FC8434010094340100A4340100B434010038
S21400740CC4340100CC340100014B18687047C046E8
S21400741C84040020014B18687047C0468004002086
S21400742C014B186A7047C0460010004110B5154B4A
S21400743C1A68154B1A60154B1A68154B1A60154AC4
S21400744C002313625169013319401C008C405069AB
S21400745C400803409C405169090A3F20014053698B
S21400746C1B0C184043011B1A9A01D31ADB001B187D
S21400747C580208F0D7FCFF21214008F0D3FC064B3D
S21400748C186010BDB8FD030010120041BCFD0300CF
S21400749C04100041001000418404002070B50C005C
S2140074AC012831D01F4B002119621F4C21001000FF
S2140074BC08F0B8FCC3B2012B2AD91A4B0022DA61A9
S2140074CC0004FC22920310408022520010435861A4
S2140074DC5969FF3A114015008D40596949080A4010
S2140074EC9540EDB25969090A3F2211405869000CC3
S2140074FC10400E4B1C60604308F094FC290008F00A
S21400750C91FC0B4B186070BD064B01211962CDE740
S21400751C044B0122DA61074A5A6101250121012038
S21400752CE7E7C0460010004100127A0080040020F5
S21400753C840400200001020010B5054B1C68054BA6
S21400754C1C60054B1C68054B1C60FFF7A7FF10BDA5
S21400755CB8FD030010120041BCFD030004100041EE
S21400756C002804D18223DB0501221A60704782238F
S21400757CDB0503221A60F9E78223DB0558607047A7
S21400758C8223DB0501229A6070478223DB05D868CC
S21400759C80B270478223DB051B69DBB2002B02D15D
S2140075AC0020C0B270470120FBE710B50020FFF7A3
S2140075BCD7FF10BD0D4B98420CD00D4B98420DD0FA
S2140075CC0C4B98420ED00C4B984206D10B4B01221A
S2140075DC1A6002E00A4B01221A607047094B01221E
S2140075EC1A60FAE7084B01221A60F6E70010004012
S2140075FC201000400020004020200040A02000402A
S21400760C80100040A010004080200040012904D0CB
S21400761C8368202293438360704783682022134339
S21400762C8360F9E70123C36070474069C0B27047B6
S21400763C8368802213438360704783688022934359
S21400764C8360704770B505000C00FFF7F6FF2368E3
S21400765C2B60AB68626892011A43A3689B001A43BE
S21400766CE3685B00134322691A43EF231340AB60B5
S21400767C70BD000070B58423DB05984208D08623C5
S21400768CDB05984202D02C4D002323E02B4DFBE764
S21400769C2B4DF9E704692243026127E09A005459FE
S2140076AC0326B44354515459023E3443545129E0F2
S2140076BC9C0062590426B24362512BE09C0062592E
S2140076CC2026B24362512DE09C0062594026B243FC
S2140076DC625101330F2B2ED801229A400C681440AD
S2140076ECA242F6D10C79012CD4D042614A79920789
S2140076FCD4D59A0054590326B44354515459013ED8
S21400770C344354514A795207D2D59C006259042608
S21400771C324362514A799206D0D59C006259202693
S21400772C324362514A795206CED59C0062594026A5
S21400773C32436251CDE770BD80300041403000418D
S21400774C00300041034B0360002303716233437126
S21400775C7047C046FFFF000003680B4201D10020B3
S21400776C70470120FCE743680B4201D100207047AC
S21400777C0120FCE7CBB20133FF339B0019500B0AF8
S21400778C80229200944663449B0019507047CBB2FB
S21400779CCA430133FF339B001A50090A80239B000F
S2140077AC9C46614489000A5070470000F0B50023DF
S2140077BC0BE001281BD0134C9D002E590327BE430B
S2140077CC2E512E5916432E5101330F2B19DC012442
S2140077DC9C400C42F8D00028EBD10B4C9D002E5947
S2140077EC0327BE432E512E5916432E51ECE7074C59
S2140077FC9D002E590327BE432E512E5916432E514B
S21400780CE2E7F0BD8020004100200041402000410E
S21400781CF0B583B004000D0017001E006846FFF795
S21400782C91FF00956B461F7169462000FFF722FFFB
S21400783C8423DB059C420AD08623DB059C420CD0B5
S21400784C320029000220FFF7B1FF03B0F0BD320072
S21400785C29000020FFF7AAFFF7E7320029000120D5
S21400786CFFF7A4FFF1E70000F8B504000D00036B6A
S21400787C012293430363FFF7D3FD002848D12A4B1C
S21400788CA82252000221995004329B582748D8400F
S21400789C09F09CF8061C2B68180109F097F8011CD7
S2140078AC301C08F06BFC071C08F032FC060009F0D4
S2140078BC8DF8011C381C08F0A5FE8521C90508F0BA
S2140078CC6FFD09F05DFF0022194B09F0BFF808F0B8
S2140078DC37FC6662A062E36AEE2293431A00A9881C
S2140078ECE8882B8901430B431343E26A1343E36294
S2140078FC236B104A1A406B89A9890B431343226BDE
S21400790C13432363236B0122134323630020F8BD28
S21400791C054EA8235B000122F250FFF775FDAA2343
S21400792C5B00F358D840B3E70010004100127A0011
S21400793C0000E03FFE3CFFFF01607047006880B22D
S21400794C704743680B4201D1002070470120FCE7CA
S21400795C002A03D1836B8B4383637047836B194375
S21400796C8163FAE7036C0B4201D1002070470120BB
S21400797CFCE7436C194341647047000010B50400E3
S21400798C094B1B6B022B06D0074B1B6B032B02D031
S21400799CFFF73AFD01E0FFF73DFD210008F042FA43
S2140079AC024B186110BDC04600100041006000403C
S2140079BC10B5FFF7E3FF044A936803218B430B4390
S2140079CC9360002010BDC04600600040034B5B680F
S2140079DCDB07FBD4014B18607047C04600600040C4
S2140079EC70B504000D0089B2FFF7A6FFA3691B074C
S2140079FCFCD4280070BD10B5040080B2FFF7E6FF7B
S214007A0C200010BD0078C0B270470170704730B5CA
S214007A1C002507E06C182404240C241824785455EC
S214007A2C0135ADB29D42F5D330BD70B5002507E0EB
S214007A3C6C182404240C2418565D26700135ADB23F
S214007A4C9D42F5D370BD000070B5141E00D170BDFC
S214007A5C8004094BC61835682D042D0CE0235B03F7
S214007A6C1840064B184313000A002900FFF7DDFFE9
S214007A7C64193460EBE7C0460C020146000002466F
S214007A8C70B5141E00D170BD8004094BC61835683D
S214007A9C2D042D0CE0235B031840064B18431300F3
S214007AAC0A002900FFF7B3FF64193460EBE7C04601
S214007ABC280201460000034610B500290FD08004AA
S214007ACC074BC4182368E02252031040054A1043A3
S214007ADC1B041B0C59180904090C0918216010BD4D
S214007AEC2802014600000346F8B5060015002023C0
S214007AFC9B1A99400C0015E0104B19883000FFF7C4
S214007B0C39FE012008F066F90D4F39883000FFF772
S214007B1C31FE012008F05EF939883000FFF737FE99
S214007B2C6400013D002D07D0002CE5DB034B1988C3
S214007B3C3000FFF72CFEE4E7F8BDC0460E00002030
S214007B4C0C000020F8B506000024002516E06400A2
S214007B5C0C4F39883000FFF70DFE012008F03AF97B
S214007B6C39883000FFF713FE012008F033F9064B76
S214007B7C19883000FFF7F0FD044301350F2DE6D9C8
S214007B8C2000F8BD0C0000200E00002070B504008C
S214007B9C0A4B1B884361012008F01CF9084D298804
S214007BAC2000FFF7E7FD012008F014F929882000D3
S214007BBCFFF7EDFD012008F00DF970BD0E0000205A
S214007BCC0C00002070B50400084B1B880361084DA0
S214007BDC2988FFF7CFFD012008F0FCF82988200043
S214007BECFFF7D5FD012008F0F5F870BD0E0000205B
S214007BFC0C000020F8B500270025012F2AD80025F8
S214007C0C00E00135082D27DC01218624E40520221E
S214007C1C49422000FFF768FF042206212000FFF7E8
S214007C2C63FF052229002000FFF75EFF05220121D5
S214007C3C2000FFF759FF2000FFF7A8FF2000FFF7F2
S214007C4C81FF06002000FFF7BDFF002ED9D0054BA4
S214007C5C9E42D6D02800F8BD0137FFB202480AF083
S214007C6C15F9CAE7FFFF0000F434010070B582B0C6
S214007C7C06000D0014006846FFF764FD2B00234336
S214007C8C009301236A46137169463000FFF7F2FC35
S214007C9C012221000120FFF789FD01222900012085
S214007CACFFF784FD044B1D80044B1C80FFF7A2FFDE
S214007CBC034B186002B070BD0C0000200E000020B4
S214007CCC680A002003781B024078C01880B2704700
S214007CDC03000A0A0270023059707047F0B5DE468F
S214007CEC57464E464546E0B584460020834600245B
S214007CFCA24620E0002802D101308046C2442D0264
S214007D0CFC24A401254049786D186544691C8846F6
S214007D1C2C7801201FE000240C572C700131140025
S214007D2C0135621E92B2002CF5D16A1C2E342C70D2
S214007D3C2D3CA046C3444C1CA0460D78ACB2002883
S214007D4C02D10126B146CA443F27B9462F004E46FB
S214007D5CB743C02FCED0002C0AD01B1B013B1BB246
S214007D6C002B14DB002800D1A24441461500D8E7AE
S214007D7C5B46002B02D12E33137001320023137096
S214007D8C50463CBC90469946A246AB46F0BD0123F5
S214007D9C5B429A46F4E710B594B00C004B2301AA4C
S214007DACFFF79CFF431C03D02018043014B010BD02
S214007DBC0020FBE7F0B595B005000C0016004B2331
S214007DCC01AAFFF78BFF431C4AD024182000FFF7AC
S214007DDC79FF27000A370F280DD88000254B1B5833
S214007DEC9F46A37A3370E37A7370237BB3702700B5
S214007DFC0E37637BF370380015B0F0BD4B2301AA29
S214007E0C39002800FFF76AFF431C2BD03F18F2E717
S214007E1C27000B37A47A3C1927780137E719EAE7CD
S214007E2C0C344B2301AA21002800FFF757FF431CF4
S214007E3C1AD02718DFE74B2301AA39002800FFF7D2
S214007E4C4DFF431C12D03F184B2301AA39002800C3
S214007E5CFFF744FF431C0BD0381814300700CAE752
S214007E6C0027C8E70027C6E70027C4E70027C2E7B5
S214007E7C0027C0E710350100F8B507000D00160006
S214007E8C1222002109F080FF2800FFF71BFF388024
S214007E9CA81CFFF717FF030436D4C20A0F2313409F
S214007EACFB70430501D501233B71830501D50123E6
S214007EBC7B71C30501D50123BB71030601D50123D4
S214007ECCFB710F2318403872281DFFF7FBFE7881D4
S214007EDCA81DFFF7F7FEB88128000830FFF7F2FE62
S214007EECF88128000A30FFF7EDFE388229000C31A5
S214007EFC00247B89A3420AD92800FFF74CFF011EF9
S214007F0C27D00134A4B2F4E70123BB70C5E70024E4
S214007F1CBB89A34208D932002800FFF74BFF011E8D
S214007F2C1AD00134A4B2F3E7002301E001339BB26C
S214007F3CFA899A42FAD8002301E001339BB23A8AB6
S214007F4C9A42FAD83B7A002B01D0002003E001209D
S214007F5C01E001204042F8BD01204042FBE7000052
S214007F6CF0B5D646474680B597B006000C00019291
S214007F7C2C4B1988013189B219801000FFF7A8FE26
S214007F8CF60280214900314309B289B2FFF7A0FE00
S214007F9C0121FFF79DFE0021FFF79AFE0021FFF757
S214007FAC97FE0021FFF794FE0700210003A80AF0B5
S214007FBC05F803A80AF00AF883B29A4603AE15E051
S214007FCC54467D1C3C70002C1CD02200310028002E
S214007FDC0AF014F82F194346002B11D0631CF61820
S214007FEC53461C1BA4B2013CA3B29A462E21300069
S214007FFC09F0CCFF80460028E2D0841BA4B2E0E750
S21400800C7D1C3B7001212800FFF762FE0121FFF763
S21400801C5FFE019BC01A00B217B00CBC90469A4685
S21400802CF0BDC0467C0A00200B4B1B68022B10D9F7
S21400803C094B00221A60094B1B78012B04D801331C
S21400804C064A137000207047044B1A7001204042F9
S21400805CF9E70120F7E7C046740A002088040020E0
S21400806C034B1870034B1960034B044A1A80704775
S21400807C700A0020780A00207C0A002022110000DA
S21400808CF0B58DB004000F000392284E3078002314
S21400809C0022022100F082FF8023254D5B002A6817
S2140080AC39000020FFF75CFF82B229683078352350
S2140080BC0093230001F04AFA1C4B187883041D4ADF
S2140080CC944663441E68B6B2002E0FD1FFF7ACFF81
S2140080DC002828DBF0D1164B1968144B187835237A
S2140080EC00932300320001F031FAE5E780235B00B1
S2140080FC9E4200D91E000E4C21680E2302AA9446FE
S21400810C6344009306AB320001F0E8FA2168039A48
S21400811C07A8FFF7B1FE0400044B187800F004FF24
S21400812C20000DB0F0BD0024FAE7C046700A00200F
S21400813C780A002024020146024A136801331360B1
S21400814C7047C046740A002010B51A4C21781A489D
S21400815CFFF75BFC61781948FFF757FCA1781848C5
S21400816CFFF753FCE1781748FFF74FFC164C2178C5
S21400817C1648FFF74AFC61781548FFF746FCA178CD
S21400818C1448FFF742FCE1781348FFF73EFC134C0B
S21400819C21781348FFF739FC61781248FFF735FC55
S2140081ACA1781148FFF731FCE1781048FFF72DFC59
S2140081BC10BDC0469C0400201360004612600046AA
S2140081CC1160004610600046A00400200F600046B8
S2140081DC0E6000460D6000460C60004698040020B9
S2140081EC0B6000460A6000460960004608600046C0
S2140081FC10B5124C80212000FFF707FC2000FFF77B
S21400820C01FCFFF7A1FF0E4C21780E48FFF7FDFB93
S21400821C61780D48FFF7F9FBA1780C48FFF7F5FBE2
S21400822CE1780B48FFF7F1FB21790A48FFF7EDFBE5
S21400823C61790948FFF7E9FB10BDC04600230046EC
S21400824C8C04002003600046026000460160004675
S21400825C00600046076000460660004610B5114CEC
S21400826C80212000FFF7D1FB2000FFF7CBFB0E4C44
S21400827C21780E48FFF7C9FB61780D48FFF7C5FB60
S21400828CA1780C48FFF7C1FBE1780B48FFF7BDFB64
S21400829C21790A48FFF7B9FB61790948FFF7B5FB66
S2140082AC10BDC046002300468C0400200360004628
S2140082BC026000460160004600600046076000460B
S2140082CC0660004610B50B4B0B4C1C600B4B0C4C55
S2140082DC1C600C4B0C4C1C60002801D0054B186025
S2140082EC002901D0054B1960002A01D0054B1A60F5
S2140082FC10BDC0461800002055810000200000204C
S21400830CFD8100001C0000206982000010B5324A76
S21400831C012311680B7011684B70053311688B7054
S21400832C002000231168C87011682C4A1268140EBD
S21400833C0C71140C4C71140A8C71CA710881802251
S21400834C8A720022CA720B734B738B73CB730B74CB
S21400835C4B748B74CB740B754B758B75CB750B760E
S21400836C4B768B76CB761E4B1A780A775A784A77EA
S21400837C9A788A77DA78CA771879202288545A79C4
S21400838C2123CA541B3B04E0CA1800201077013383
S21400839CDBB20F2BF8D9002305E0CA182C320020CC
S2140083AC10700133DBB23F2BF7D9002305E0CA1857
S2140083BC6C32002010700133DBB25AB2002AF6DAA7
S2140083CC6323EC228B5401328220885401322F38DE
S2140083DC885401328B5410BD880A0020800A002075
S2140083EC8C040020F0B5CE46474680B585B0FFF726
S2140083FC8DFF574B1968F0233522CA54EF3BBC321D
S21400840C8B5401328B5401323D208854013236385D
S21400841C885401328B544F4B187801328854587854
S21400842C01328854987801328854DF7801328F54A0
S21400843C1E7901328E545D79FB23CD540133EE3A0E
S21400844CCA5401330022CA54EB3B08E0581C424C79
S21400845CA45CCB18EC331C70013292B283B21000C1
S21400846C3D4CA45C002CF1D15C1CA4B2A146CC18EB
S21400847CA446EC24A046C444644627709F1CBFB296
S21400848C4C460C19EC342670DC1CA4B2CF193E00FA
S21400849CEC3635700430201A03320818EC300270B3
S2140084AC181D80B20C19EC34372222705A1D92B269
S2140084BC0818EC3006240470981D80B28A18EC322A
S2140084CC01251570DA1D92B20818EC3002350570CD
S2140084DC1800083080B28A18EC3214701A00093270
S2140084EC92B20818EC300934047018000A3080B2C6
S2140084FC8A18EC322B3414701A000B3292B208180D
S21400850CEC30013404700C339BB28A18EC32FF202A
S21400851C107005E0CA18EC320020107001339BB2C4
S21400852C3822FF329342F5D903AB383A1A705A7098
S21400853C9A70DA70763A09480078432400949200D0
S21400854C01F004F805B00CBC90469946F0BDC04648
S21400855C880A00208C040020100000208C0A0020C2
S21400856CF0B585B0FFF7D2FE824B1B78033BDBB22F
S21400857C012B3CD903ABFF221A705A709A70DA7032
S21400858C7D4B1968F0233522CA54EF3BBC328B5412
S21400859C01320320885401323A308854013236387E
S2140085AC885401328B54754B18780132885458789D
S2140085BC01328854987801328854DF7801328F540F
S2140085CC1E7901328E545D79FB23CD5403ABDB78D8
S2140085DCFF2B25D010235A1CC818EC300C24047022
S2140085EC02338A18EC320020107000224AE0624BEC
S2140085FC1B6800229A72DA72614A117819735178E4
S21400860C597391789973D278DA735E4A117803AB02
S21400861C19705178597091789970D278DA70AFE7F2
S21400862C033BC83ACA542E3A0133CA54544B1C78EE
S21400863CFE200C545C7801300C549C7801300C54A1
S21400864CD8780223FF33C85401333620C854042389
S21400865CFF33CA544B4B18780132FF328854587883
S21400866C0622FF328854987801328854DA78082328
S21400867CFF33CA54EB3BAEE75C1CCB18EC331870DC
S21400868C0132A3B24048805C0028F5D1581C80B259
S21400869CCC18EC3427709C1CA4B20818EC3006706E
S2140086ACD81C80B20C19EC342570141D041B033234
S2140086BC0C19EC3422701C1DA4B20818EC303722AE
S2140086CC02705A1D92B20C192000EC30082404706B
S2140086DC981D80B28A18EC32073C1470DA1D92B2E0
S2140086EC0818EC30023404701800083080B28A186F
S2140086FCEC32033414701A00093292B20818EC30BB
S21400870C0934047018000A3080B28A18EC322B3404
S21400871C14701A000B3292B20818EC300134047044
S21400872C18000C3080B28A18EC321C3C14701A00FC
S21400873C0D3292B20818EC30023404700E338A18DC
S21400874CEC32FF2010709BB204E0CA18EC3200200A
S21400875C107001333822FF329342F6DDAE3A0B4BE3
S21400876C18784323009303AB920000F0EFFE05B09D
S21400877CF0BDC046A9040020880A00208C04002006
S21400878C9C040020840A0020100000208C0A002084
S21400879C30B585B0FFF7BAFD374B196800238B72DE
S2140087ACCB72F0333522CA54EF3BBC328B54ED3AC5
S2140087BCF2200A5401303D240C540130363C0C5443
S2140087CC01300B542D4B1C7801300C545C78013066
S2140087DC0C549C7801300C54DC7801300C541C7909
S2140087EC01300C545879FB23C85401333220C8543A
S2140087FC0133CA54224B1C78CC300C545C780130B4
S21400880C0C549D78802464000D55DC780223FF33CD
S21400881CCC5401333624CC540423FF33CA54194B9E
S21400882C1C780132FF328C545C780622FF328C5452
S21400883C9C7801328C54DA780823FF33CA540133FF
S21400884CC854EB3B04E0CA18EC320020107001331D
S21400885C3822FF329342F6DD03AB383A1A705A7060
S21400886C9A70DA70763A084800784324009492009E
S21400887C00F06CFE05B030BD880A00208C04002089
S21400888C9C040020840A00208C0A002030B587B097
S21400889C564B18788304564A944663441A6892B228
S2140088AC002A02D1002007B030BD524B19680E25A5
S2140088BC6D44009504AB00F011FF2B88432B01D0C0
S2140088CC60B2F0E74B4B1A68117F4B4B1B78994202
S2140088DC01D00020E7E7517F474B5B78994201D0E7
S2140088EC0020E0E7917F444B9B78994201D0002012
S2140088FCD9E7D17F404BDB78994201D00020D2E7F4
S21400890C2023D15C3C4B1B79994201D00020CAE74E
S21400891C2123D15C384B5B79994201D00020C2E709
S21400892CF03283B2F03BD318002425E0012935D071
S21400893C002920D0032955D1507895782F490D70F1
S21400894CD5784D7015798D70951D5279CA70021FA9
S21400895CAA1811E0332945D19178294801600902FB
S21400896CD578491909021579491909025579491911
S21400897C0160063200E001329A42A1D21178062933
S21400898C17D0D3D9352906D0E4D936291FD0FF29DC
S21400899C28D11A00F0E794780332EDE7907819495D
S2140089AC0870D0784870107988705079C870063284
S2140089BCE2E75078957814490D70D5784D70157996
S2140089CC8D70951D5279CA70021FAA18D4E790783C
S2140089DC0E490870D0784870107988705079C87035
S2140089EC0632C9E7911C52788A18C5E78C0A002013
S2140089FC24020146880A00208C04002098040020DB
S214008A0C24000020A004002094040020840A0020E7
S214008A1C10B5044B187800F087FA034B06221A7030
S214008A2C10BDC0468C0A0020A904002070B582B088
S214008A3C134C2000FEF7E6FF060003212000FEF78D
S214008A4CE4FF104B1878104B0093104B1122104972
S214008A5C00F07CFD050031002000FEF7D6FF0D353A
S214008A6C0BD0FFF795FE0B4B1A680A4B1B689B1A2C
S214008A7C012BFAD9002002B070BD0120FBE7C046DE
S214008A8C446000468C0A0020881300009C040020DA
S214008A9C64350100AC0400200023044A1360044A29
S214008AAC05211160034A13707047C046AC040020C1
S214008ABC28000020A804002010B5224B1B785BB2BF
S214008ACC012B09DD204B1B78022B31D0042B2FD029
S214008ADC012B25D0012427E01C4B1A681C4B1B6865
S214008AEC9A422CD2184B1B78022B13D0042B14D082
S214008AFC012B0CD0164B00221A601B680533134A48
S214008B0C1360104A13780133137001240EE0FFF73C
S214008B1C69FCEFE7FFF724FDECE7FFF721FDE9E73B
S214008B2C094B00221A700024FFF7B6FF200010BD78
S214008B3CFFF758FC044B01221A700124F4E70124B9
S214008B4CF4E7C046A8040020A90400202800002052
S214008B5CAC04002010B5674B1B785BB2062B00D11B
S214008B6CC1E0654B18788004644B9C466044FEF765
S214008B7C49FF22280BD1FFF789FEC0B25D4B1A784D
S214008B8C042A00D9B2E093005D4AD3589F465A4B4C
S214008B9C187800234422022100F000FAEBE7594B28
S214008BAC00221A705A709A70DA70FFF71BFC514B41
S214008BBC01221A70012497E0022803D0FFF77CFFED
S214008BCC040091E0504B1A68117C4E4B1970517C86
S214008BDC5970917C9970D27CDA70FFF7C1FC454BCA
S214008BEC02221A7001247FE0052805D006281BD027
S214008BFCFFF762FF040077E0FFF718FF002809D0A4
S214008C0C424B1B689847FFF747FF3A4B03221A70F4
S214008C1C012469E0FFF740FF3D4B1B689847354B36
S214008C2C00221A7001245FE0FFF736FF314B012259
S214008C3C1A70012458E0374B1B685A1C58D05B0836
S214008C4C354A1268934201D304244DE02D4A11781C
S214008C5C324B19705178597091789970D278DA70C5
S214008C6C2F4A136801331360FFF77AFCFFF714FFE3
S214008C7C204B04221A70042436E0052805D006285A
S214008C8C2AD0FFF719FF04002EE0264B00221A709C
S214008C9C224B1A781B4B1B789A4209D0224B1B6826
S214008CAC98470324FFF7F8FE124B03221A701BE0BA
S214008CBC1A4B5A78134B5B789A42EFD1174B9A782B
S214008CCC104B9B789A42E9D1144BDA780D4BDB7833
S214008CDC9A42E3D10424E5E7FFF7DEFE054B0122BA
S214008CEC1A70042400E00524200010BD0124FBE7C4
S214008CFC0424F9E7A90400208C0A00203000014661
S214008D0C503501009C040020880A00201800002022
S214008D1C1C00002024000020AC040020A40400202A
S214008D2C800A0020A804002020000020F8B50600C9
S214008D3C0D004A48FEF766FE494C20704948FEF77F
S214008D4C61FE60704848FEF75DFEA0704748FEF76F
S214008D5C59FEE0704648FEF755FE20714548FEF772
S214008D6C51FE6071277863789C46A178E278237967
S214008D7C6446274339430A43134318434AD03E4BB1
S214008D8C1E703E4B1D603648C1783D4BCB1804799F
S214008D9C1B1942799B1861404A409B18394A13604C
S214008DAC394F00213800FEF730FE384E00213000D7
S214008DBCFEF72BFE364D00212800FEF726FE354C1E
S214008DCC00212000FEF721FE00213800FEF71DFED4
S214008DDC00213000FEF719FE00212800FEF715FED4
S214008DEC00212000FEF711FE00212B48FEF70DFE99
S214008DFC00212A48FEF709FE00212948FEF705FE49
S214008E0C00212848FEF701FEFFF746FE264B0022FF
S214008E1C1A70F8BD124C0023237008226270D432EC
S214008E2CA270E3702371637100210C48FEF7EDFD10
S214008E3C61780C48FEF7E9FDA1780B48FEF7E5FDD6
S214008E4CE1780A48FEF7E1FD21790948FEF7DDFDD9
S214008E5C61790848FEF7D9FD91E7C04603600046E5
S214008E6C8C0400200260004601600046006000464C
S214008E7C07600046066000468C0A0020880A002020
S214008E8C78563412800A00201360004612600046A2
S214008E9C11600046106000460B6000460A600046F3
S214008EAC0960004608600046A9040020024A1368C0
S214008EBC013313607047C046AC040020044B1A788C
S214008ECC02705A7842709A788270DB78C37070475A
S214008EDC9C040020044B1A7802705A7842709A78D8
S214008EEC8270DB78C370704798040020044B1A78A5
S214008EFC02705A7842709A788270DB78C37070472A
S214008F0CA0040020044B1A7802705A7842709A78A3
S214008F1C8270DB78C370704794040020014B18688D
S214008F2C7047C0462400002070B50600082825D8D7
S214008F3C8404144BE51810212800FEF766FD280063
S214008F4CFEF760FD0028FAD11F210F4BE018FEF744
S214008F5C5CFD0122B2400D490B8893430B807200D6
S214008F6C0B4B0021D15200220A4B9A550A4BE018A3
S214008F7CFEF748FD0028F9D1013070BD01204042B3
S214008F8CFBE7C0461000014628000146B20400204C
S214008F9CBC040020B404002030000146F0B5C646E0
S214008FAC00B50400884616001F00082866D800295D
S214008FBC67D0022901D9042963D106233B4263D129
S214008FCC002F04D04346012B46D0022B4AD020005B
S214008FDCFFF7AAFFA5042E4BE8180F233900994378
S214008FEC49B243461943C9B2FEF70FFD002E07D10E
S214008FFC284A1688731C9BB21380274A934239D092
S21400900C264BEB181E60264BEE1801213000FEF79F
S21400901CFCFC3000FEF7F6FC0028FAD101231F40BA
S21400902CA740204A13881F4317800122A2401E49DE
S21400903C0B8893430B8063001C4A00219952002234
S21400904C1B4B1A551B4BE818FEF7DCFC0028F9D016
S21400905C60B204BC9046F0BD21233B42B7D106203B
S21400906C4042F6E7BB06B2D57BB2002BAFDB062040
S21400907C4042EEE7074B104A1A80C1E701204042F7
S21400908CE7E705204042E4E706204042E1E7C04619
S21400909C000001462C000020F0FF000014010146E1
S2140090AC10000146B0040020B2040020BC040020CE
S2140090BCB40400203000014600C0FFFF70B5060067
S2140090CC082828D88404184BE018FEF79BFC0F23BE
S2140090DC1840012822D1154BE5182800FEF792FC03
S2140090EC13281ED1124B9C46644402212000FEF726
S2140090FC8CFC2000FEF786FC0028FAD12800FEF730
S21400910C81FC142801D1133870BD3000FFF70CFF1A
S21400911C04204042F8E701204042F5E70520404293
S21400912CF2E703204042EFE700000146300001461C
S21400913C10000146F0B5C64600B507000E00904676
S21400914C082863D885043B4BE818FEF75BFC0F2316
S21400915C184001285DD1384BEC182000FEF752FC65
S21400916C132859D131780B0272789B181B02B278EF
S21400917C9B181B02F2789B18013B03334FD84346CF
S21400918C002B4FD02D4BE818FEF73FFC71782C4B7C
S21400919CE818FEF73AFCB1782A4BE818FEF735FCCF
S2140091ACF178294BE818FEF730FC284BEB184246B2
S2140091BC1A60274BEE1804213000FEF726FC300010
S2140091CCFEF720FC0028FAD1224B1B883B41DB071C
S2140091DC2BD42000FEF716FC172815D01E4BE818CB
S2140091ECFEF710FC030707D42000FEF70BFC002844
S2140091FCEFD10420404219E0184BE8180821FEF77E
S21400920C04FC0D20404211E016380FE001204042CD
S21400921C0CE00520404209E00320404206E00C200A
S21400922C404203E00B20404200E0002004BC904685
S21400923CF0BDC0460000014630000146270101463D
S21400924C260101462501014624010146200101465E
S21400925C10000146B00400202000014628000146FC
S21400926C70B50600082833D884041D4BE018FEF7AA
S21400927CC9FB0F23184001282DD11A4BE5180821DD
S21400928C2800FEF7C2FB2800FEF7BCFB0028FAD12C
S21400929C01221000B04014490B8883430B80134BFB
S2140092AC1B8833411A4219D1114BE018FEF7AAFB62
S2140092BC00280BD00F4BE018FEF7A4FB0307F3D5E2
S2140092CC3000FFF731FE0D20404208E0013006E08A
S2140092DC0120404203E00520404200E0002070BD23
S2140092EC0000014610000146B2040020B004002025
S2140092FC3000014620000146F0B5CE4600B582B0DF
S21400930C060001911400082800D97DE081468504EA
S21400931C434BE818FEF776FB0F231840012800D0C5
S21400932C75E0002C00D175E03E4B9C46AC44634681
S21400933C00936046FEF766FB172802D01C2800D068
S21400934C6BE0394B1B883341DB0717D5374BE818D6
S21400935CFEF758FBC30606D403071AD4002002B047
S21400936C04BC9146F0BD1021314BE818FEF74DFBBE
S21400937C0122B2402C490B8893430B802D4BE818E6
S21400938CFEF740FB80B2800287B2BC420FD82700A3
S21400939C0DE03000FFF7C8FD0D204042DFE730003F
S2140093ACFFF7C2FD07204042D9E7BC4214D2224B3D
S2140093BCEB181C68A4B20098FEF724FB172801D003
S2140093CC1C28ECD11D4B1B884A461341DB07ECD5F9
S2140093DCBC42EAD20020C2E73A0001993000FEF700
S2140093EC33FB174BEC1820212000FEF70EFB200059
S2140093FCFEF708FB0028FAD10122B2400A490B8876
S21400940C13430B803800AAE701204042A7E705204B
S21400941C4042A4E70E204042A1E7072040429EE7C8
S21400942C0000014630000146B20400202000014630
S21400943C280001460002014604020146B004002042
S21400944C10000146F0B5C64600B582B000900191FA
S21400945C1400082861D806008704344BF818FEF769
S21400946CD1FA0F23184001285AD1002C5BD0304B70
S21400947CF818FEF7C7FA80B2800283B298469C4270
S21400948C0FD8A0460DE00098FFF74EFD072040428F
S21400949C3FE00098FFF748FD0720404239E0002CDB
S2140094AC22D1244BFB181C68A4B2234BF818FEF7E9
S2140094BCA9FA17280FD01C28EBD1002C14D11F4B5F
S2140094CCFB181B681B041D0C1D4BF818FEF79AFAAC
S2140094DC80028542D7D01B4B1B883341DB07DED579
S2140094EC002CDCD1002014E0444500D34446220076
S2140094FC01990098FEF7C4FA134B9C46674440212A
S21400950C3800FEF782FA3800FEF77CFA0028FAD10B
S21400951C200002B004BC9046F0BD01204042F8E7A3
S21400952C05204042F5E70E204042F2E700000146D7
S21400953C2002014624020146300001460402014680
S21400954C00020146B004002010000146F0B5DE46CD
S21400955C474680B583B08046019193461C000AAB03
S21400956C1F88082800D985E0050086044E4BF018A5
S21400957CFEF748FA0F231840022801D004287CD1A5
S21400958C5B46002B7CD023781B0262789B181B0250
S21400959CA2789B181B02E2789B18002B73D0002F26
S2140095AC74D0424B9C46B444634600936046FEF728
S2140095BC29FA422801D022286BD121783C4BF0188E
S2140095CCFEF723FA61783B4BF018FEF71EFAA178EB
S2140095DC394BF018FEF719FAE178384BF018FEF70D
S2140095EC14FA374BF3181F60364BF018FEF70AFACE
S2140095FC80B2800287B2BB4503D85F4601E0BC420E
S21400960C11D2314BF3181C68A4B20098FEF7FAF985
S21400961C002841D02D4B1B882B41DB07EFD5BC42D5
S21400962CEDD200203AE03A0001994046FEF70CFADB
S21400963C274BF41820212000FEF7E7F92000FEF750
S21400964CE1F90028FAD1234BF018FEF7DBF9C30634
S21400965C09D40307F7D5204BF0180821FEF7D5F9E7
S21400966C0D2040421AE01C4BF0181021FEF7CDF9E5
S21400967C380013E00120404210E0052040420DE087
S21400968C0E2040420AE00C20404207E00B204042ED
S21400969C04E00720404201E00420404203B00CBC2A
S2140096AC90469B46F0BDC046000001463000014681
S2140096BC27010146260101462501014624010146E3
S2140096CC200101460002014604020146B0040020B7
S2140096DC100001462000014628000146F0B5DE4683
S2140096EC474680B585B00600009190460193082841
S2140096FC00D9D8E007008504714BE818FEF782F90C
S21400970C83460F230340022B02D0042B00D0CDE05F
S21400971C4346002B00D1CCE073006A4A9B5A002BC0
S21400972C15D00024684B00229A5507235A4613403E
S21400973C022B20D0042B00D17EE021003000FEF757
S21400974CBBF973005F4A9C5225E0002CEAD15F4BB4
S21400975CEB181C68A4B25E4BE818FEF753F9002809
S21400976C00D1A9E05B4B1B883B41DB07EDD5002CF9
S21400977CEBD1002029E07300524A9B5A002B29D0CB
S21400978C7300504A9C5A444500D94446220000991E
S21400979C3000FEF775F9504B9C4665444021280076
S2140097ACFEF733F92800FEF72DF90028FAD1454AC2
S2140097BC71008B5A1B1B9BB28B52002B04D0424A57
S2140097CC935D01210B439355200005B00CBC9046CD
S2140097DC9B46F0BD082202A93000FEF751F93E4B1D
S2140097ECEC1840212000FEF710F92000FEF70AF9CD
S2140097FC0028FAD102AB1B78019A137002AB5B7887
S21400980C537002AB9B78937002ABDB78D37002ABD1
S21400981C1B791B0202AA52799B180C9A138002AB76
S21400982C9B791B0202AAD2799B18720025498B528F
S21400983C254B80229A55A3E77300224A9B5A002B8D
S21400984C0BD073001F4A9C5A444500D9444622004C
S21400985C00993000FEF714F99DE7022202A93000A9
S21400986CFEF70EF91C4BEC1840212000FEF7CDF845
S21400987C2000FEF7C7F80028FAD102AB1B781B02B3
S21400988C02AA52789B189BB272000E495352134A86
S21400989C934203D80C4B80229A55D2E73000FFF740
S2140098AC43FB0F4891E7012040428EE705204042DB
S2140098BC8BE70E20404288E70420404285E7C046EE
S2140098CC00000146BC040020B4040020240201461B
S2140098DC30000146B004002010000146EA050000E6
S2140098EC17FCFFFF70B51500082864D8072903D8A5
S2140098FC8900384B5B589F460A2040425FE0800444
S21400990C354B9C4660441178FEF77FF8012056E0F4
S21400991C8004324B9C4660441178FEF776F80120A2
S21400992C4DE080042E4B9C46604413880360012057
S21400993C45E080042B4B9C46604413880360012052
S21400994C3DE08404284BE018FEF75CF80F23184023
S21400995C012835D1254BE018FEF754F8002832D1F3
S21400996C234BE51822212800FEF74FF82800FEF7B7
S21400997C49F800280DD01F4BE018FEF743F80307F4
S21400998CF4D51D4BE0180821FEF73FF80D20404299
S21400999C15E0013013E08404134BE018FEF732F8A0
S2140099AC0F231840012811D1104BE0182978FEF728
S2140099BC2CF8012003E00120404200E0012070BD9D
S2140099CC05204042FBE702204042F8E705204042D3
S2140099DCF5E7C0467835010008010146040101464A
S2140099EC1001014620010146000001468001014697
S2140099FC10000146200001462800014670B5040000
S214009A0C1500082800D994E00C2900D994E08900A8
S214009A1C4E4B5B589F4680044D4B9C466044FDF76E
S214009A2CF1FF0F2398432870012070BD8004494B2A
S214009A3C9C466044FDF7E6FF28700120F5E780049D
S214009A4C454B9C466044FDF7DDFF28700120ECE793
S214009A5C8404424B9C466444236813700120E4E75C
S214009A6C84043F4BE018FDF7CDFF28703D4BE01803
S214009A7CFDF7C8FF68703C4BE018FDF7C3FFA870F5
S214009A8C3A4BE018FDF7BEFFE8700120CDE78404E2
S214009A9C374B9C466444236813800120C5E7840436
S214009AAC2B4BE018FDF7AEFF0F231840012846D1CC
S214009ABC304BE018FDF7A6FF28800120B5E784049C
S214009ACC2D4B9C466444236813800120ADE7840428
S214009ADC2A4B9C466444236813800120A5E7800427
S214009AEC274B9C466044FDF78DFF287001209CE7B1
S214009AFC8604174BF018FDF785FF012805D0640087
S214009B0C204BE35A2B8001208FE71C4B9C46664467
S214009B1C33682B8089E780040D4B9C466044FDF728
S214009B2C71FF0F23184001280CD1174B1B5D2B70AF
S214009B3C7BE70120404278E70220404275E705208B
S214009B4C404272E7052040426FE7C0469835010058
S214009B5C00000146080101460401014610010146B9
S214009B6C270101462601014625010146240101462E
S214009B7C20010146800101460402014624020146EA
S214009B8C30000146BC040020B4040020F0B593B0AD
S214009B9C4E48FDF737FF00904D48FDF733FF019018
S214009BAC4C48FDF72FFF02904B48FDF72BFF039018
S214009BBC4A48FDF727FF04904948FDF723FF059018
S214009BCC4848FDF71FFF06904748FDF71BFF079018
S214009BDC4648FDF717FF08904548FDF713FF099018
S214009BEC4448FDF70FFF0A904348FDF70BFF0B9018
S214009BFC4248FDF707FF0C904148FDF703FF0D9018
S214009C0C4048FDF7FFFE0E903F4E3000FDF7FAFE83
S214009C1C0F903E4D2800FDF7F5FE10903C4C2000B2
S214009C2CFDF7F0FE11903B4F80213800FDF7EDFE5E
S214009C3C3800FDF7E7FE00992448FDF7E6FE01998B
S214009C4C2348FDF7E2FE02992248FDF7DEFE039953
S214009C5C2148FDF7DAFE04992048FDF7D6FE059953
S214009C6C1F48FDF7D2FE06991E48FDF7CEFE079953
S214009C7C1D48FDF7CAFE08991C48FDF7C6FE099953
S214009C8C1B48FDF7C2FE0A991A48FDF7BEFE0B9953
S214009C9C1948FDF7BAFE0C991848FDF7B6FE0D9953
S214009CAC1748FDF7B2FE0E991648FDF7AEFE0F9953
S214009CBC3000FDF7AAFE10992800FDF7A6FE1199B4
S214009CCC2000FDF7A2FE13B0F0BDC04603600046B0
S214009CDC02600046016000460060004607600046D1
S214009CEC066000460B6000460A60004609600046A7
S214009CFC086000460F6000460E6000460D60004689
S214009D0C0C60004613600046126000461160004668
S214009D1C106000460023004670B506000D00FFF7E5
S214009D2C35FF002E18D00022002304E0F15C8A18C0
S214009D3C52B201335BB2072BF8DD102A2BDC002461
S214009D4C08E0A004174B9C466044315DFDF75DFEB1
S214009D5C013464B2072CF4DD002D02D0002200235F
S214009D6C06E0002016E0E95C8A1852B201335BB2BA
S214009D7C072BF8DD102A11DC002408E0A0040A4B9F
S214009D8C9C466044295DFDF740FE013464B2072C06
S214009D9CF4DD002070BD01204042FBE7012040426C
S214009DACF8E7C046000201462002014610B5040042
S214009DBC01782A48FDF729FE61782948FDF725FE2B
S214009DCCA1782848FDF721FEE1782748FDF71DFE0F
S214009DDC21792648FDF719FE61792548FDF715FE11
S214009DECA17B2448FDF711FEE17B2348FDF70DFE11
S214009DFC217C2248FDF709FE617C2148FDF705FE13
S214009E0CA17A2048FDF701FEE17A1F48FDF7FDFD1B
S214009E1C217B1E48FDF7F9FD617B1D48FDF7F5FD1E
S214009E2CA1791C48FDF7F1FDE1791B48FDF7EDFD26
S214009E3C217A1A48FDF7E9FD617A1948FDF7E5FD28
S214009E4CA27C184B1A70E27C5A70227D9A70627D46
S214009E5CDA70A27D144B1A7010BDC0460360004623
S214009E6C026000460160004600600046076000463F
S214009E7C066000460B6000460A6000460960004615
S214009E8C086000460F6000460E6000460D600046F7
S214009E9C0C600046136000461260004611600046D7
S214009EAC10600046D0040020CC04002010B504003E
S214009EBC2A48FDF7A7FD20702948FDF7A3FD607022
S214009ECC2848FDF79FFDA0702748FDF79BFDE07026
S214009EDC2648FDF797FD20712548FDF793FD607128
S214009EEC2448FDF78FFDA0732348FDF78BFDE07328
S214009EFC2248FDF787FD20742148FDF783FD60742A
S214009F0C2048FDF77FFDA0721F48FDF77BFDE07231
S214009F1C1E48FDF777FD20731D48FDF773FD607333
S214009F2C1C48FDF76FFDA0711B48FDF76BFDE0713B
S214009F3C1A48FDF767FD20721948FDF763FD60723D
S214009F4C184B1A78A2745A78E2749A782275DB78D1
S214009F5C6375154B1B78A37510BDC0460360004691
S214009F6C026000460160004600600046076000463E
S214009F7C066000460B6000460A6000460960004614
S214009F8C086000460F6000460E6000460D600046F6
S214009F9C0C600046136000461260004611600046D6
S214009FAC10600046D0040020CC04002070B50400DD
S214009FBC382302009A430AD1064D2800FDF722FDED
S214009FCC0443E1B22800FDF720FD002070BD0120FF
S214009FDC4042FBE70023004610B50248FDF712FD91
S214009FEC10BDC0460023004610B5040001780029B9
S214009FFC03D16288034B1A6010BD0348FDF705FDBC
S21400A00CF7E7C046406000464460004610B50400C2
S21400A01C0348FDF7F7FC2070024B1B68638010BDED
S21400A02C446000464060004610B50C00052820D859
S21400A03C8000114B1B589F460800FFF7B7FE002008
S21400A04C10BD0800FFF732FF0020F9E70878FFF78D
S21400A05CADFFF5E7FFF7C0FF20700020F0E7080023
S21400A06CFFF7C2FF0020EBE70800FFF7CFFF00204A
S21400A07CE6E701204042E3E7CC35010070B5050069
S21400A08C03F074F9040003F071F9052D07D8AD0040
S21400A09C144B5B599F460122230029335A702934EE
S21400A0AC6378022B18D00021022002F011FB70BD41
S21400A0BC0222230029335A70F1E7032223002933A6
S21400A0CC5A70ECE70422230029335A70E7E705227E
S21400A0DC230029335A70E2E70121022002F0F8FA35
S21400A0ECE5E7C046E435010010B503F03FF929302A
S21400A0FC407810BDF8B503F039F90600484B1988BE
S21400A10C484B18884018484B1B88C01A05F0FAFFB5
S21400A11C8FB2464B1B880904090C5918444B9942BC
S21400A12C0CDD330029335B7C002B01D0012F22D0B1
S21400A13C3E4B1B8880273F01FF1ABFB233002933E2
S21400A14C9A7BDC7B2402144348D11B7C002B25D144
S21400A15C330029335B7C002B20D1BC4219D2002063
S21400A16C02F0FEFD314A1388591C1180314AD05436
S21400A17C0134A4B2F1E7002002F0F2FD2B4B1D884F
S21400A18CC0B22C4B5855330029335B7C9842CFD148
S21400A19C22E0264B1D881FE00134A4B2BC421FD21D
S21400A1AC002002F0DDFD214A13885D1CADB215803F
S21400A1BC204AD054330029335B7C002B04D06A1E13
S21400A1CC1C498A5C934207D0330029331B7C002B36
S21400A1DCE2D09BB29D42DFD12800F8BD0024DDE71B
S21400A1EC2936B37BF57B2D021D43F5D00F4B1D880E
S21400A1FC002DF1D0104B1B78002B0FD0084B198874
S21400A20C084B18884018084B1B88C01A05F07AFFB4
S21400A21C0029E1D1084B00221A70DDE70025DBE7A8
S21400A22C7A00002048050020460500201A0500206C
S21400A23CFF070000901A0020EA04002010B5124B0D
S21400A24C1B88002B05D0114A934209D001330E4AC5
S21400A25C13800D4B1B88002B06D00B4B188810BD9B
S21400A26C094B00221A80F4E702F0EAFC07F018FE0D
S21400A27C07F03AFE064905F045FF064B9C4661443E
S21400A28C014B1980E9E7C046D8040020FFFF000008
S21400A29C10270000B888FFFF10B500220621FFF734
S21400A2AC21FB10BD70B5040003F060F80500A00497
S21400A2BC0B4B9C466044FDF7A5FB00280AD02923CF
S21400A2CCEB5C032B03D0172806D01C2804D02000E8
S21400A2DCFEF72AFE200070BD2000FEF7C1FFF6E751
S21400A2EC30000146F0B585B007000C0003F03EF8D0
S21400A2FC05000B22002101A807F046FD0A2C00D908
S21400A30C0A242200390001A807F035FD4E35280036
S21400A31C07F05CFE844202D0002005B0F0BD22009F
S21400A32C01A9280007F018FD002801D10120F4E748
S21400A33C0020F2E770B5050003F018F8060003F0ED
S21400A34C15F80400002D2DD1244B00221A70042081
S21400A35CFFF794FE4534237A002B1AD100230022F3
S21400A36C1F490B801F490B801F490B801F490A7021
S21400A37C1F490A701F490A701F490A701F490B8033
S21400A38C1F490B801F490B801F490B801F4B1A70EF
S21400A39C70BD1F4807F07AFD0E221E49002002F001
S21400A3ACC1FCDBE70D4B01221A700120FFF766FE9D
S21400A3BC2923F35C022B0CD04534237A002BCDD00A
S21400A3CC154807F063FD0E221449002002F0AAFC83
S21400A3DCC4E7134B00221A70EEE7C046320000208A
S21400A3EC1A0500204805002046050020DF04002042
S21400A3FCE0040020E3040020E1040020EC0400202C
S21400A40CF004002014050020F4040020EA040020C8
S21400A41C8838010098380100A8380100B8380100C7
S21400A42CF2040020F8B5070000240FE00B4D288836
S21400A43C0B4E325D0B4B1A5401300B4B198805F042
S21400A44C61FE2980002333550134E4B2BC42EDD3BF
S21400A45C0023064A1370064A1370F8BD4805002000
S21400A46CD4040020900A00207A000020E10400208A
S21400A47C1805002010B5040002F078FF02F076FFF5
S21400A48C0300274A1278012A01D0002010BD0200D2
S21400A49C9B3210780028F9D0224A1078022818D857
S21400A4AC002821D14E331B184F331B78A34223D1DF
S21400A4BC1D4B1A8892B21D4B1B889BB29A421BD11D
S21400A4CC1B4B1C540130174B18701A4B01221A7078
S21400A4DC12E0032810D1144B1A8892B2134B1B8827
S21400A4EC9BB29A4208D205E04E331B184F331B78AA
S21400A4FCA34207D0FFF796FF0B4B00221A80094B9E
S21400A50C1878C3E7084B1A8892B2084B1B889BB284
S21400A51C9A42EFD2064B1C540130024B1870EBE7F4
S21400A52C3200002018050020F40400203000002023
S21400A53CD4040020E104002070B5040002F016FFDD
S21400A54C050002F013FF2B0029335B78022B0CD08E
S21400A55C07D8012B1DD12923EB5C022B05D000203C
S21400A56C18E0043BDBB2012B13D8453040790128A8
S21400A57C01D001200EE0112C06D0132C0AD1064B6C
S21400A58C00221A70002005E0034B01221A700020EE
S21400A59C00E0002070BDC0462E00002000230B4AB1
S21400A5AC13700B4A13700B4A13700B4A13700B4A3A
S21400A5BC13700B4A13700B4A13700B4A13800B4A1A
S21400A5CC13800B4A13800B4A13807047DF0400205D
S21400A5DCE3040020E0040020DE040020EA0400204F
S21400A5ECE9040020E4040020EC04002014050020FC
S21400A5FCF0040020DA04002010B502F0B7FE0400C8
S21400A60C02F0B4FE9B300378012B00D010BD0A4B31
S21400A61C1B78012BFAD12934A27BE37B1B02134354
S21400A62CF4D0064B1B78002B02D1044B01221A7077
S21400A63C034B00221A80E9E732000020E3040020D6
S21400A64C14050020F0B5C64600B584B002F08EFEA8
S21400A65C060002F08BFE029002F088FE07005148BE
S21400A66CFDF7D0F904005048FDF7CCF980464F486A
S21400A67CFDF7C8F903904E48FDF7C4F93B004E337E
S21400A68C9D7D012D10D0002C20D14346002B1DD1D2
S21400A69C039B002B1AD1002818D1029F45373B7A12
S21400A6AC002B0ED1012534E0424B1B78012BEAD04F
S21400A6BC029F45373B7A002B2BD03F4807F0E6FB32
S21400A6CC27E03E4807F0E2FB012522E03300293361
S21400A6DC9978002918D1DB78002B15D13300293353
S21400A6EC1B79002B10D1330029335B79002B0BD14F
S21400A6FC029F45373B7A002B01D1012509E03048F3
S21400A70C07F0C4FB012504E08C4207D0C02C21D0F6
S21400A71C0025280004B004BC9046F0BD3300293355
S21400A72CDB789845F2D1330029331B79039A9A4289
S21400A73CECD1330029335B799842E7D1029F453739
S21400A74C3B7A002B01D10125E3E71E4807F09EFB60
S21400A75C0125DEE74346A82B01D00025D9E73B00B0
S21400A76C4E335D7D002D1AD1C029D2D1330029334A
S21400A77CDA78A82ACDD11B7903989842C9D0029FC3
S21400A78C4537387A002801D10125C2E73000293038
S21400A79C407900900C4807F0FFFA0135B9E7002520
S21400A7ACB7E7C046136000461260004611600046CC
S21400A7BC10600046E6040020F83601002037010041
S21400A7CC583701009C370100D037010004280CD8FC
S21400A7DC80000E4B1B589F4600230D4A13600D4AF3
S21400A7EC13600D4A13600D4A13607047084B002225
S21400A7FC1A60FAE7074B00221A60F6E7064B0022AF
S21400A80C1A60F2E7054B00221A60EEE7FC350100F1
S21400A81C0C0500201005002004050020080500206B
S21400A82C002907D0012813D0002804D002281CD0F9
S21400A83C032827D070471A4B1B68013304D0184ADC
S21400A84C1368C9181160F5E7154B00221A60F1E77A
S21400A85C134B1B68013304D0124A1368C9181160D5
S21400A86CE8E7104B00221A60E4E70D4B1B68013337
S21400A87C04D00D4A1368C9181160DBE70A4B002296
S21400A88C1A60D7E7064B1B68013304D0074B1A68CF
S21400A89C89181960CEE7054B00221A60CAE7C04635
S21400A8AC0C050020100500200405002008050020DB
S21400A8BCF0B585B007000D00140002F09BF90028D7
S21400A8CC19D002F097F9029002F09AF9060002F0FD
S21400A8DC9DF9039002F0A0F90090039B32000299B8
S21400A8EC184807F059FAA31EDBB2012B12D9002424
S21400A8FC200005B0F0BD02F083F9029002F086F954
S21400A90C060002F089F90300320002990E4807F09F
S21400A91C43FAE8E7022C06D00C492A000C4807F04C
S21400A92C3BFA002407E00B49F7E7395D0A4807F0C5
S21400A93C33FA0134A4B2AC42F7D3084807F0A6FAAF
S21400A94CD6E7C04620380100383801001C38010014
S21400A95C4C380100183801005838010058480100DE
S21400A96CF0B5C64600B582B0050002F0FFFC040048
S21400A97C02F0FCFC060004F03FFD002803D002B0F9
S21400A98C04BC9046F0BDFFF7B5FB071E03D1514B38
S21400A99C00221A80F3E701000020FFF741FF330086
S21400A9AC45331B7A022B3AD0042B38D0A8044A4BDA
S21400A9BC9C466044FDF726F8172861D035D91C282C
S21400A9CC5ED02228E3D1230029339B78002B3ED17E
S21400A9DC23002933DB78002B39D1230029331B794C
S21400A9EC002B34D1230029335B79002B2FD13B4B22
S21400A9FC1B78002B1FD1394B5B78002B1BD1374BA8
S21400AA0C9B78002B17D1354BDB78002B13D14536B2
S21400AA1C337A002B2BD0324807F038FA27E0022284
S21400AA2C39003048FFF744FFC0E71428AFD12E4B4F
S21400AA3C00221A80A3E72D4B1B880093274B3A0065
S21400AA4C28492800FEF782FD03B298460FE0210045
S21400AA5C293123002B33087A4A7A120202430092D9
S21400AA6C3A0020492800FEF771FD03B2984643468B
S21400AA7C002B8CDD1C4B18884246801A188086E703
S21400AA8C1B4B1B78012B00D081E73A001549280098
S21400AA9CFEF732FC03B2002B03DD134A1388181A98
S21400AAAC108039000120FFF7BBFE2934E37D012B13
S21400AABC00D06CE70F4B1B78002B06D10E4B0122F7
S21400AACC1A700E4B00221A8061E70A4B00221A708D
S21400AADCF7E7C046EC04002030000146F8040020DE
S21400AAEC103A0100901A00201A050020FC040020E1
S21400AAFCE4040020E8040020E0040020F004002019
S21400AB0CF0B5C64600B584B0050002F02FFC060072
S21400AB1C02F02CFC070002F029FC03903B004533A6
S21400AB2C5B79022B47D0A804894BC3181C68A4B2C7
S21400AB3C80231B019C4244D8002C17D0854B9C4686
S21400AB4C6044FCF75FFF1C2867D022283CD01728EF
S21400AB5C63D00023804A1380804A13800022804BE7
S21400AB6C1A70804B19880220FFF75AFE33002933DF
S21400AB7C5B78012B5DD0022B57D07A4B1B88002BB1
S21400AB8C00D1E1E03B004533DB79012B72D0452345
S21400AB9CFB5C012B73D03B0045335B79012B00D15A
S21400ABAC95E03B0045331B7A033BDBB2012B00D808
S21400ABBCB2E00024BEE0002002F0E6F90028B2D095
S21400ABCCC2E080242401B9E7674B0093674B220050
S21400ABDC67492800FEF782FD624B18800422634901
S21400ABEC644807F0B9F80028B3D0604B1A68614B7C
S21400ABFC1A603B0045331B7A002BAAD05B480178C1
S21400AC0C427883789846C078574B1B8801930090FF
S21400AC1C4346594807F0C0F89BE7220054492800E1
S21400AC2CFEF710FC4F4B188093E7544B1B78002B09
S21400AC3CA3D1039E4E36337D012B9ED1504B1B78F1
S21400AC4C002B9AD121004A48FFF74CFB01280DD067
S21400AC5C4B4B00221A70434B00221A80484B1B7831
S21400AC6C002B8AD12800FEF7FBFA6DE0444B01223C
S21400AC7C1A70F0E701F03BFE002888D164E04537F7
S21400AC8C3B7A033BDBB2012B04D9002002F014F90B
S21400AC9C00240DE0334B198803223548FFF708FED5
S21400ACACF3E7334B195D002002F024F80134A4B20C
S21400ACBC2C4B1B88A342F4D8002002F031F9294C07
S21400ACCC21880320FFF7ACFD002323803CE02D4BAE
S21400ACDC1B78012B38D145373B7A033BDBB2012B73
S21400ACEC01D900240DE01F4B198803222048FFF7DA
S21400ACFCDFFDF6E71E4B195D002001F0FBFF01346B
S21400AD0CA4B2184B1988A142F4D80320FFF788FD8B
S21400AD1C144B00221A8017E0124B19880322144891
S21400AD2CFFF7C6FD45E7124B195D002001F0E2FF68
S21400AD3C0134A4B20B4B1988A142F4D80320FFF7B8
S21400AD4C6FFD084B00221A8004B004BC9046F0BD80
S21400AD5C2402014630000146EC040020F0040020DA
S21400AD6CE8040020DC040020FC040020F80400208A
S21400AD7C902200203400002060380100F2040020ED
S21400AD8CE40400202E000020F0B583B0040002F08E
S21400AD9CEDFA02F0EBFA050002F0E8FA0190A704CF
S21400ADAC2A4BF818FCF72EFE002822D0222836D183
S21400ADBC274B1988274B18884018274B1B88C01A16
S21400ADCC05F0A0F9002903D1244B1B88002B02D0D8
S21400ADDC2000FFF7C5FD224BFB181B689BB2002B0F
S21400ADEC03D1204B1B88002B19D02000FFF788FEC0
S21400ADFC15E00023174A1380174A1380174A13804E
S21400AE0C184A13802B0029339979DA7912020A43EF
S21400AE1C002302212000FEF7C1F8844201D003B0C3
S21400AE2CF0BD0520FFF72AF92935AA7BEB7B1B0220
S21400AE3C134301D00C4A1380019F45373B7A002BF5
S21400AE4CEDD00A4807F022F8E9E7C0463000014684
S21400AE5C7A00002048050020460500201A05002030
S21400AE6C24020146DC04002030000020B839010022
S21400AE7CF0B5C64600B586B0040002F077FA02F0CC
S21400AE8C75FA050002F072FA060002F06FFA0390EB
S21400AE9C002305930A2202A98C466244138002946E
S21400AEACA704AD4BF818FCF7ADFD1C2800D90EE135
S21400AEBC8000AA4B1B589F462A002932117B537BD5
S21400AECC1B020B43A64A128892B2934200D9FEE0AC
S21400AEDCA34B00221A80FFF7B5FB012800D1F6E041
S21400AEEC2B00293329002B31187A5A7A1202024386
S21400AEFC2000FEF71FF9EAE09A4BF818FCF782FDE3
S21400AF0CC3075BD4984B1988984B18884018984BF5
S21400AF1C1B88C01A05F0F6F8002903D1954B1B8840
S21400AF2C002B02D02000FFF71BFD934BFB181B6871
S21400AF3C9BB2002B03D1914B1B88002B02D0200018
S21400AF4CFFF7DEFD8E4B1B78012B00D190E02B001B
S21400AF5C2933DB7D012B00D0B9E08A4B1B78012B03
S21400AF6C00D0B4E0884B1B78002B0DD12A00293278
S21400AF7C117E537E1B020B43844A128892B2934274
S21400AF8C02D8002B00D088E07F4B1B78012B00D01A
S21400AF9C9DE02935AA7EEB7E1B0213437B4A128862
S21400AFAC92B2934200D992E0002B00D18FE02000A1
S21400AFBCFFF772F9754B00221A8088E00220FFF723
S21400AFCC5DF8734B1B889BB2002B09D12A002932E3
S21400AFDC917AD37A1B020B4302D0694B01221A706A
S21400AFEC6A4B1B889BB2002B07D12B002933DB7DC9
S21400AFFC002B02D0634B01221A70664B01221A708A
S21400B00C654B1B78012B11D04536337A002B13D1A8
S21400B01C0023564A1380564A138000225F4B1A7040
S21400B02C01215F4BF818FCF7F0FC6BE700235A4A3B
S21400B03C13704B4A1380E7E705AE3200042120005C
S21400B04CFEF7DCFC0A2302AA9446634498461A00D0
S21400B05C05212000FEF7D2FC31787278B378F078B0
S21400B06C46463688019600904E4806F095FECFE789
S21400B07C2A002932917AD37A1B020B43444A12884F
S21400B08C92B2934200D962E72000FFF70BF9002337
S21400B09C3C4A13703D4A138059E72000FFF7FCF832
S21400B0AC3A4B00221A80384B01321A706CE720009B
S21400B0BCFFF726FD304BFB181B689BB2002BF6D116
S21400B0CC2E4B1B88002BF2D12000FEF7C9F806B0D9
S21400B0DC04BC9046F0BD0120FEF7D0FFFFF75EFAE9
S21400B0EC0023244A1380254A1380FFF7A7F8020092
S21400B0FC212301212000FDF751FF029B8342E6D15C
S21400B10C039F9B373B78012B1BD0234B1B78002BC4
S21400B11C08D129352A7B6B7B1B02134302D01E4BAE
S21400B12C01221A704536337A002BD0D01B4B1B7875
S21400B13C002BCCD11C4806F0A9FE184B01221A7025
S21400B14CC5E72A002932917BD37B1B020B43DCD04C
S21400B15C164A1380D9E7C046300001461036010067
S21400B16C00050020200001467A000020480500203B
S21400B17C460500201A05002024020146DC040020A7
S21400B18CDF040020E0040020E8040020F004002087
S21400B19CEC040020E4040020E2040020EE0400206E
S21400B1AC28000146C8380100F438010030000020A1
S21400B1BCF0B5CE4600B586B0040002F0D7F802F023
S21400B1CCD5F8060002F0D2F8039002F0CFF8029001
S21400B1DC002305930A2202A98C466244138027009A
S21400B1ECA5049F4BE818FCF70DFC172834D005D99E
S21400B1FC182806D01C2800D117E123E1002800D01F
S21400B20C20E10120FEF73AFFFFF7C8F90023954A24
S21400B21C1380954A1380330029339979DA79120210
S21400B22C0A43202301212000FDF7B8FE874200D0F8
S21400B23C08E1029D9B352B78012B00D106E12000FE
S21400B24CFDF73CFF039F45373B7A002B00D1F9E016
S21400B25C864806F01BFEF5E0854BE818FCF7D2FB9B
S21400B26CC30744D4834B1988834B18884018834BE8
S21400B27C1B88C01A04F046FF002903D1794B1B88A3
S21400B28C002B02D02000FFF76BFB7D4BEB181B68E6
S21400B29C9BB2002B03D1744B1B88002B02D02000D2
S21400B2ACFFF72EFC774B1B78012B6DD03300293320
S21400B2BCDB7D012B00D17BE0029D4E352B7D012BD7
S21400B2CC00D0BFE0704B1B78002B00D0BAE06F4B61
S21400B2DC1B889BB26E4A934200D8B3E02000FEF760
S21400B2ECE1FF00236B4A1370684A1380AAE0022021
S21400B2FCFEF7C4FE684B1B889BB2002B09D13200AC
S21400B30C2932917AD37A1B020B4302D05D4B012271
S21400B31C1A70029B4E331B7D002B12D15A4B012206
S21400B32C1A70039F45373B7A002B11D10023524AE3
S21400B33C1380524A13800121584BE818FCF765FB22
S21400B34C90E7544B01221A70504B00221A80E8E703
S21400B35C05AF3A0004212000FEF750FB0A2302AA90
S21400B36C9446634499461A0005212000FEF746FBD6
S21400B37C39787A78BB78F8784F463F8801970090F2
S21400B38C474806F009FDD1E732002932917AD37A84
S21400B39C1B020B43404A128892B2934286D8200076
S21400B3ACFEF780FF00233F4A13703F4A13807DE769
S21400B3BC3C4B1B78012B00D07EE73C4B1B78002BBC
S21400B3CC0CD132002932117E537E1B020B43364AB7
S21400B3DC128892B2934201D8002B19D1334B1B78AA
S21400B3EC012B00D068E72936B27EF37E1B0213438E
S21400B3FC2D4A128892B2934200D95DE7002B00D1F9
S21400B40C5AE72000FEF748FF274B00221A8053E726
S21400B41C2000FEF741FF244B00221A80234B0132FA
S21400B42C1A70DBE72000FFF76BFB154BEB181B685D
S21400B43C9BB2002BF6D10C4B1B88002BF2D12000B4
S21400B44CFDF70EFF06B004BC9146F0BD2936B27B64
S21400B45CF37B1B02134300D1F1E6154A1380EEE68C
S21400B46C300001461A050020DC0400209439010047
S21400B47C200001467A0000204805002046050020E2
S21400B48C24020146DF040020E4040020DA04002035
S21400B49C87130000DE040020EC0400202800014680
S21400B4AC68390100E0040020F0040020E8040020C5
S21400B4BC30000020F0B5C64600B586B0040001F09A
S21400B4CC55FF01F053FF050001F050FF039001F00B
S21400B4DC4DFF0290002305930A2202A98C46624473
S21400B4EC1380A604CE4BF018FCF78CFA1C2800D957
S21400B4FCD6E18000CB4B1B589F46CB4B1B78012BC1
S21400B50C00D0CDE12A002932117B537B1B020B4362
S21400B51CC64A128892B2934200D9C1E1C34B0022AC
S21400B52C1A80FFF78FF8012820D02B00293329002A
S21400B53C2B31187A5A7A120202432000FDF7FAFDD4
S21400B54CBB4A13780133DBB21370092B00D8A7E182
S21400B55C2000FEF7A7FE0023B54A1370B54A1380E9
S21400B56CB54A13800022B04B1A7099E12000FEF702
S21400B57C99FE0023AE4A1370AE4A1380AE4A13806F
S21400B58C0022A94B1A708BE1A74B1B78002B00D01E
S21400B59C86E1AA4B1988A74B18884018A64B1B881F
S21400B5ACC01A04F0AFFD002900D179E12000FEF7A7
S21400B5BC79FE9D4B01221A7029352A7B6B7B1B0268
S21400B5CC13439A4A13806BE19D4BF018FCF71AFA5A
S21400B5DCC3074AD4994B1988964B18884018964B33
S21400B5EC1B88C01A04F08EFD002903D1954B1B88CE
S21400B5FC002B02D02000FFF7B3F9934BF3181B680F
S21400B60C9BB2002B03D1914B1B88002B02D0200041
S21400B61CFFF776FA8E4B1B78012B00D1AEE02B0091
S21400B62C2933DB7D012B00D1C0E07F4B1B78002B30
S21400B63C00D035E1029E4E36337D012B00D02FE133
S21400B64C844B1B78002B00D02AE1834B1B889BB2C3
S21400B65C824A934200D823E12000FEF723FE002303
S21400B66C7F4A13707C4A13801AE10220FEF706FD0F
S21400B67C7C4B1B889BB2002B09D12A002932917A6D
S21400B68CD37A1B020B4302D0714B01221A70764BF5
S21400B69C1B889BB2002B07D12B002933DB7D002B9C
S21400B6AC02D0724B01221A70029B4E331B7D002B6C
S21400B6BC10D05D4B1B78012B0CD0002B0DD1654B9D
S21400B6CC1B78002B09D1664B01221A70624B0022A4
S21400B6DC1A8002E05F4B01221A70039F45373B7AB3
S21400B6EC002B10D1504B1B78002B41D1514A1380A4
S21400B6FC514A13804E4B00221A7001215C4BF018F5
S21400B70CFCF783F966E705AA04212000FEF776F914
S21400B71C0A2202AB9C46624405212000FEF76EF915
S21400B72C414B1B78002B11D105A801784278837801
S21400B73CC07880460A2702A8844667443F8801974B
S21400B74C404600904B4806F027FBCBE705A801784F
S21400B75C42788378C07880460A2702A884466744D5
S21400B76C3F88019740460090434806F015FBB9E722
S21400B77C012BBFD12C4B00221A70BBE72A002932B2
S21400B78C917AD37A1B020B43364A128892B29342B2
S21400B79C00D944E72000FEF785FD0023334A1370DA
S21400B7AC314A13800022204B1A7038E72F4B1B7837
S21400B7BC012B00D039E7314B1B78002B0CD12A001B
S21400B7CC2932117E537E1B020B43274A128892B2F3
S21400B7DC934201D8002B19D1284B1B78012B00D093
S21400B7EC23E72935AA7EEB7E1B0213431E4A1288DA
S21400B7FC92B2934200D918E7002B00D115E720002F
S21400B80CFEF74AFD184B00221A800EE72000FEF7C2
S21400B81C43FD154B00221A80184B01321A70DBE7D9
S21400B82C3000014684360100F2040020000500209A
S21400B83CFE04002048050020460500207A00002063
S21400B84C200001461A05002024020146DC040020D4
S21400B85CDF040020E4040020DA0400208713000034
S21400B86CDE040020EC040020F0040020E00400209D
S21400B87C2800014668390100C8380100E804002099
S21400B88C2000FFF73DF93C4BF3181B689BB2002BCE
S21400B89CF6D13A4B1B88002BF2D12000FDF7E0FCCA
S21400B8AC06B004BC9046F0BD0120FEF7E7FB344B17
S21400B8BC1B78002B2DD1FEF771FE0023314A138026
S21400B8CC2E4A13802B0029339979DA7912020A430F
S21400B8DC212301212000FDF761FB8442E0D1029E6A
S21400B8EC9B363378012B0BD02000FDF7E7FB039F2C
S21400B8FC45373B7A002BD3D0234806F0C7FACFE760
S21400B90C2935AA7BEB7B1B021343EDD01F4A138011
S21400B91CEAE71A4B00221A80FEF790FC020020235E
S21400B92C01212000FDF73AFB8442B9D1029E9B36DA
S21400B93C3378012B15D0164B1B78002B08D12935E4
S21400B94C2A7B6B7B1B02134302D0114B01221A700D
S21400B95C039F45373B7A002BA2D00E4806F096FA8A
S21400B96C9EE72A002932917BD37B1B020B43E2D045
S21400B97C064A1380DFE7C04624020146DC0400209A
S21400B98CF20400201A0500201839010030000020AF
S21400B99CE20400204039010070B5060001F0E6FC18
S21400B9AC050001F0E3FC040001F0E0FC234B1B78DF
S21400B9BC002B02D0214B00221A70A823C35C012B4B
S21400B9CC07D01F4B1B78012B04D01D4B1B78012B6B
S21400B9DC0ED070BD1B4B1B78012BF6D13000FEF73A
S21400B9EC61FC0020FEF7A6FC164B00221A70ECE752
S21400B9FC2833EB5C012B15D0002B0FD0022B15D067
S21400BA0C032B17D0002001F095FC45346079431EBB
S21400BA1CDBB2012BDDD801F00DFCDAE73000FFF7C6
S21400BA2C27FAEFE73000FFF7C3FBEBE73000FFF732
S21400BA3C41FDE7E73000FFF7A7F9E3E7170500201D
S21400BA4C320000201605002010B501F08FFC040013
S21400BA5C3F4B1B78002B0AD03E4B1B889BB23E4AB2
S21400BA6C93424FD03B4A138801339BB213803B4B17
S21400BA7C1B78002B0AD03A4B1B889BB2364A934253
S21400BA8C44D0374A138801339BB21380354B1A883F
S21400BA9C92B2354B1B889BB29A4204D2314A138819
S21400BAAC01339BB21380314B1B78002B07D02D4BE8
S21400BABC1A8892B22C4B1B889BB29A422AD02C4BDB
S21400BACC1B78002B0ED02934A27BE37B1B0213437E
S21400BADC284A128892B293422CD9264A13880133EC
S21400BAEC9BB21380244B1B78002B0AD0234B1B884D
S21400BAFC9BB2194A934226D0204A138801339BB234
S21400BB0C138010BD134B00221A80B0E7144B002292
S21400BB1C1A80BBE71A4B1878032808D1194B012258
S21400BB2C1A700023164A1370104A1370C7E7FEF7F4
S21400BB3C79FCF6E70F4B00221A800D4B1A70124B4D
S21400BB4C01221A70CEE70D4B00221A80D9E7C046A8
S21400BB5CE204002000050020FFFF0000E0040020A7
S21400BB6CF0040020F404002030000020E104002043
S21400BB7CE304002014050020DE040020DA04002074
S21400BB8C1805002016050020EA040020094B1B7837
S21400BB9C002B0AD0084B1B889BB2084A934204D051
S21400BBAC054A138801339BB21380054B01221A7089
S21400BBBC7047C046DF040020EC040020FFFF0000A6
S21400BBCC1705002010B501F0D5FB01F017FD10BDD0
S21400BBDC10B5002404E02000FEF764FB0134E4B248
S21400BBEC072CF8D910BD000010B5FFF7F1FF0420A4
S21400BBFCFEF7ECFDBFF34F8F034B044ADA60BFF33E
S21400BC0C4F8FC046FDE7C04600ED00E00400FA0585
S21400BC1C204B1B78012B04D01F4B1B78012B1CD000
S21400BC2C70471E4B1B889BB21D4A934211D01B4A71
S21400BC3C138801339BB21380184B1B889BB2194A8E
S21400BC4C9342E9D9184B01221A70144B00221A8021
S21400BC5CE2E7124B00221A80EEE7144B1B889BB2CD
S21400BC6C0F4A934211D0114A138801339BB21380AA
S21400BC7C0E4B1B889BB20B4A9342D1D90C4B01221C
S21400BC8C1A700A4B00221A80CAE7084B00221A8048
S21400BC9CEEE7C0461D0500201C05002022050020EE
S21400BCACFFFF0000871300001F0500202005002062
S21400BCBC1E0500200023074A1370074A1370002243
S21400BCCC06490B8006490B80064B1A70064B1A70F9
S21400BCDC7047C0461D0500201C05002022050020CC
S21400BCEC200500201F0500201E050020F0B585B09D
S21400BCFC0400019101F03AFB050003AB00221A8008
S21400BD0C2600A704464BF818FBF77CFE172810D025
S21400BD1C0BD9182800D170E01C2808D12000FDF79C
S21400BD2C9FFA0026300005B0F0BD002865D000262E
S21400BD3CF8E73C4BF818FBF765FEC3074FD43A4BB5
S21400BD4C1B78012B54D0394BFB181E68B6B2002E4C
S21400BD5CE8D080231B019E4200D91E00344B196884
S21400BD6C70182F00A837FB783A7912021A437B79A1
S21400BD7C1B041A43BB791B061343984203D99EB285
S21400BD8C89B2761AB6B2320001992000FDF75AFB3A
S21400BD9C86B2274F03041B0C3A68944663443B60F8
S21400BDAC330A03A90B70487002222000FDF7A4FA90
S21400BDBC204B00221A80A835EB782A7912021A43F7
S21400BDCC6B791B041A43AB791B0613433A689342F0
S21400BDDCA8D8FFF76FFF2000FDF742FAA2E7164B34
S21400BDEC01221A700121154BF818FBF70EFEA6E778
S21400BDFC2000FDF799F8002694E72023104A01212D
S21400BE0C2000FDF7CBF8864201D000268AE7084BC7
S21400BE1C00221A602000FDF751F9002682E7C04682
S21400BE2C30000146200001461E0500202402014673
S21400BE3C24050020200500201C05002028000146B3
S21400BE4C52C3000070B5060001F090FA040001F031
S21400BE5C8DFA0500A823E35C002B00D1ACE0220091
S21400BE6CA832D17813791B020B43517909040B4382
S21400BE7C9179090619434A1E504B9A420CD94535FE
S21400BE8C2B7A002B01D1402620E0C82252024C48C7
S21400BE9C05F082FF402619E0022E19D0043EF6B2B9
S21400BEAC012E00D878E04026A834E27823791B02CD
S21400BEBC1343627912041343A27912061A43414BB8
S21400BECC19688A4200D16CE0FFF7F4FE300070BDB2
S21400BEDC030045331B7A002B0CD13A4B00221A6018
S21400BEEC022000F065FD032000F062FD364B0122B7
S21400BEFC1A701BE0354805F04FFFEEE7344B1B7805
S21400BF0C012B2FD0334B1B78012B37D02100A831B7
S21400BF1CCB780A7912021A434B791B041A438B7995
S21400BF2C1B061343274A1268934233D92A49042026
S21400BF3CFFF7DCFE0028E1D0224E3368E022D20167
S21400BF4C9446634419000300234A022000F06AFD5D
S21400BF5C0004000C33689C46604430601F4B002283
S21400BF6C1A80CBE72B0045331B7A002B01D14026D9
S21400BF7C9AE71B4805F08AFF402695E72B004533C9
S21400BF8C1B7A002B01D140268EE7164805F07EFF63
S21400BF9C402689E7202687E7134805F077FF4026DA
S21400BFAC94E745352B7A002B01D180268CE70F4879
S21400BFBC05F0F2FE802687E7402687E7FF8F010014
S21400BFCC9C3B0100280500201D050020043C0100B8
S21400BFDC1F0500201E0500209022002022050020B0
S21400BFEC403C0100783C0100B03C0100F83C0100EC
S21400BFFC70B5C0B001F0BAF9050001F0B7F906004B
S21400C00C802252000021684605F0BEFEFF236A46D9
S21400C01C13702A00A832D17813791B020B4351797E
S21400C02C09040B439179090619434A1E5A4B9A4246
S21400C03C0CD94536337A002B01D140248CE0E02213
S21400C04CD201564805F0A8FE402485E0330045335F
S21400C05C1B7A002B09D1524B00221A60062000F0E6
S21400C06CA7FC504B01221A7038E04F4805F094FE9E
S21400C07CF1E74E4CA45C6B469C54013292B2FF2AFC
S21400C08CF7D9431EFF3B9BB20131FF31484A0620CD
S21400C09C00F0C8FC80B20130FF3080B2404B1A680A
S21400C0AC944660441860434B00221A80424B1B781F
S21400C0BC012B26D0414B1B78012B2ED02900A83102
S21400C0CCCB780A7912021A434B791B041A438B79E4
S21400C0DC1B061343324A126893422AD9334904206A
S21400C0ECFFF704FE0028E1D02D4B1968002901D17A
S21400C0FC0022C4E703002D4A062000F093FC80B211
S21400C10CCCE7330045331B7A002B01D1402411E0D9
S21400C11C2B4805F0BBFE40240CE0330045331B7A5D
S21400C12C002B01D1402405E0264805F0AFFE402444
S21400C13C00E020242900A831CB780A7912021A4391
S21400C14C4B791B041A438B791B061343144A12684B
S21400C15C934204D0FFF7AEFD200040B070BDE02047
S21400C16C6946C00100F0B4F84536337A002B01D18D
S21400C17C8024EFE7A835EA782B791B0213436A79FB
S21400C18C12041343AA7912061A43054B19680E4873
S21400C19C05F002FE8024DDE7FF6F0000583A010030
S21400C1AC2C0500201D050020C03A0100902200201E
S21400C1BC90230020220500201F0500201E050020CD
S21400C1CCFC3A0100343B01006C3B010010B5002327
S21400C1DC02E01C5CCC5401339342FAD3180010BD19
S21400C1ECF8B5054D802464002E5901277F422F5147
S21400C1FC024FB8472E51F8BD00E100E00110FF1FBA
S21400C20C10B5C303DB0B834210D00F4B984203D9F7
S21400C21C0E4B0340834213D00C4B98420FD983032A
S21400C22C9B0B83420BD10020112400E0122472B623
S21400C23C0023002201002000FFF7D2FF62B610BDDB
S21400C24C00201024F3E7C046FFFD0300FFFE0300AA
S21400C25C10B5C303DB0B834200D010BD72B60023AF
S21400C26C002201001320FFF7BBFF62B6F5E70000C3
S21400C27C10B51400124B984203D983039B0B8342D0
S21400C28C0CD0002C03D103190E4A934216D80E4A32
S21400C29C0E4BC318934207D8002010BD80235B00BA
S21400C2AC9A42EED90020F8E772B623000A00010085
S21400C2BC2220FFF795FF62B62000EEE72000ECE7A1
S21400C2CCFFFD0300FFFF0300FFFD01000000FEFF63
S21400C2DC10B5C0B0002901D0002305E000232BE0E8
S21400C2ECCA5C6C46E2540133072BF9D9082304E0E8
S21400C2FC1A1812786C46E2540133A72BF8D9A823E7
S21400C30C03E0CA5C6846C2540133FF2BF9D972B6F7
S21400C31C0023002200211220FFF762FF80235B001F
S21400C32C6A4600212220FFF75BFF62B640B010BDC4
S21400C33C1A786946CA540133072BF9D9082304E046
S21400C34C1A1812786946CA540133A72BF8D9A823B1
S21400C35C03E01A786946CA540133FF2BF9D9D6E79D
S21400C36C10B5040001F002F8A023C25CA03043789C
S21400C37C1B02134323409C4201D0002010BD012019
S21400C38CFCE710B5040000F0F1FFA0308278C3780B
S21400C39C1B02134323409C4201D0002010BD0120F9
S21400C3ACFCE710B5040000F0E1FFA03002794379F9
S21400C3BC1B02134323409C4201D0002010BD0120D9
S21400C3CCFCE702000020032806D813000341012BCB
S21400C3DC03D00130C0B2F6E700207047F8B5040071
S21400C3EC00F0C4FF0600A023C25C0300A0335B78F9
S21400C3FC1B021343250023409C4200D0F8BDA0B27C
S21400C40CFFF7DFFF07003200A0329178D3781B02CB
S21400C41C0B4323409C4216D03200A032117953793C
S21400C42C1B020B431C40A5421ED042001D4BD45A87
S21400C43C1D4D87000123002221007859FBF7E8F9EF
S21400C44C7B595C61DAE7194B1B5CFF2BD6D0FBF7EC
S21400C45CACF87A00134BD15ABF00134BF858032391
S21400C46C0022FBF7D5F9C9E743000E4A9C5A830015
S21400C47C0D4A9858012301222100FBF7C9F9A03672
S21400C48CB379012B06D0BF00074BF8582100FBF7F9
S21400C49C7EF9B3E7BF00044BF8582100FBF76AF9A6
S21400C4ACACE7C046283D01005400002048000020A0
S21400C4BC70B505000C0000F059FF012C07D0002CBD
S21400C4CC12D000242800FFF789FF200070BDA03092
S21400C4DC027943791B0213432B4303711B0A4371E6
S21400C4EC2800FFF77BFFEDE7A030027943791B02AB
S21400C4FC1343AB4303711B0A43712800FFF76EFF0F
S21400C50C0134DFE7F8B506000C0000F02FFF05003D
S21400C51C012C07D0002C20D000243000FFF75EFF43
S21400C52C2000F8BDB7B23800FFF74BFF124B1B5C70
S21400C53CFF2B01D10024F0E700213000FFF7B8FFF5
S21400C54CA035AB78E878000218433843A870000A88
S21400C55CE8703000FFF742FFDFE7A035AA78EB78EB
S21400C56C1B021343B343AB701B0AEB703000FFF790
S21400C57C35FF0134D1E7C0464800002070B50500F1
S21400C58C0C0000F0F3FE0600A023C25C0300A033F0
S21400C59C5B781B0213432B40AB4201D0002070BDCE
S21400C5AC0200A0329178D3781B020B431D422DD18A
S21400C5BC117953791B020B432B40AB4201D0002060
S21400C5CCEDE72800FFF7FDFE2388002B03D0012B98
S21400C5DC0ED00120E3E7A036B371F37142000C4B8A
S21400C5ECD15A80000B4BC058FBF7D1F80120D6E788
S21400C5FCA036B3710023F3714200054BD15A80006C
S21400C60C044BC058FBF7B6F80120C8E70020C6E775
S21400C61C283D01005400002010B5FAF7ADFFFAF7DC
S21400C62CAFFFFAF7B7FF0028FBD1FAF7AEFF10BD45
S21400C63C70B504000E0000F099FE05000023338050
S21400C64CA033C25C0300A0335B781B021343234069
S21400C65CA34201D0002070BD2000FFF7B2FE2A00D6
S21400C66CA0329178D3781B020B432340A34213D0FD
S21400C67CA0352A796B791B0213432340A34216D0AC
S21400C68C8200104BD25840000F49415A1000FBF75D
S21400C69C63F830800120DEE70C4B185CFF2801D1D4
S21400C6AC0120D8E7FFF7B8FF30800120D3E78200DF
S21400C6BC044BD3584000044A815A1800FBF753F831
S21400C6CCE7E7C04654000020283D01004800002043
S21400C6DC70B504000D0000F049FE8023DB009C4280
S21400C6EC02D0022C20D070BD012D07D045308379A6
S21400C6FC002B12D0002002F017FFF4E745308379A8
S21400C70C002B03D0002002F0FDFEECE780218420F5
S21400C71CC900C005FBF73BF8F4E780218420C9006C
S21400C72CC005FBF727F8E5E7012D07D04530C379A0
S21400C73C002B11D0012002F0F7FED4E74530C37968
S21400C74C002B03D0012002F0DDFECCE78420022172
S21400C75CC005FBF71CF8F5E784200221C005FBF7A3
S21400C76C09F8E7E770B5050000F000FE8023DB0053
S21400C77C9D4203D0022D15D0200070BD4530837924
S21400C78C002B07D180218420C900C005FAF7E4FFEE
S21400C79C0400F1E780218420C900C005FAF7E3FF06
S21400C7AC0400E9E74530C379002B06D0842002212B
S21400C7BCC005FAF7D1FF0400DEE784200221C0058D
S21400C7CCFAF7CAFF0400D7E770B58025ED0084247D
S21400C7DCE4050123012229002000FBF719F82900A3
S21400C7EC2000FAF7C7FF70BD10B58424E4050123BA
S21400C7FC012202212000FBF70BF802212000FAF799
S21400C80CB9FF10BD70B58025ED008424E405012326
S21400C81C012229002000FAF7FBFF29002000FAF776
S21400C82CB6FF70BD10B5012806D080218420C90043
S21400C83CC005FAF7ACFF10BD80218330C900C005D7
S21400C84CFAF798FFF7E710B584200123002202219F
S21400C85CC005FAF7DDFF10BD10B500F087FD04002B
S21400C86C030045339B79002B08D1FFF7ADFF453409
S21400C87CE379002B05D0FFF7E6FF10BDFFF7C2FFEC
S21400C88CF5E7FFF7B1FFF8E710B500F06FFD040011
S21400C89CFFF7E2FF4534A379012B14D00120FFF7F4
S21400C8AC5FFD002813D10220FFF75AFD002812D195
S21400C8BC0420FFF755FD002811D10820FFF750FD86
